{
  "_format": "hh-sol-artifact-1",
  "contractName": "DappIDMinter",
  "sourceName": "contracts/DappIDMinter.sol",
  "abi": [
    {
      "inputs": [],
      "stateMutability": "nonpayable",
      "type": "constructor"
    },
    {
      "anonymous": false,
      "inputs": [
        {
          "indexed": true,
          "internalType": "address",
          "name": "owner",
          "type": "address"
        },
        {
          "indexed": true,
          "internalType": "address",
          "name": "approved",
          "type": "address"
        },
        {
          "indexed": true,
          "internalType": "uint256",
          "name": "tokenId",
          "type": "uint256"
        }
      ],
      "name": "Approval",
      "type": "event"
    },
    {
      "anonymous": false,
      "inputs": [
        {
          "indexed": true,
          "internalType": "address",
          "name": "owner",
          "type": "address"
        },
        {
          "indexed": true,
          "internalType": "address",
          "name": "operator",
          "type": "address"
        },
        {
          "indexed": false,
          "internalType": "bool",
          "name": "approved",
          "type": "bool"
        }
      ],
      "name": "ApprovalForAll",
      "type": "event"
    },
    {
      "anonymous": false,
      "inputs": [
        {
          "indexed": false,
          "internalType": "uint256",
          "name": "_fromTokenId",
          "type": "uint256"
        },
        {
          "indexed": false,
          "internalType": "uint256",
          "name": "_toTokenId",
          "type": "uint256"
        }
      ],
      "name": "BatchMetadataUpdate",
      "type": "event"
    },
    {
      "anonymous": false,
      "inputs": [
        {
          "indexed": false,
          "internalType": "uint256",
          "name": "_tokenId",
          "type": "uint256"
        }
      ],
      "name": "MetadataUpdate",
      "type": "event"
    },
    {
      "anonymous": false,
      "inputs": [
        {
          "indexed": true,
          "internalType": "address",
          "name": "from",
          "type": "address"
        },
        {
          "indexed": true,
          "internalType": "address",
          "name": "to",
          "type": "address"
        },
        {
          "indexed": true,
          "internalType": "uint256",
          "name": "tokenId",
          "type": "uint256"
        }
      ],
      "name": "Transfer",
      "type": "event"
    },
    {
      "inputs": [
        {
          "internalType": "address",
          "name": "to",
          "type": "address"
        },
        {
          "internalType": "uint256",
          "name": "tokenId",
          "type": "uint256"
        }
      ],
      "name": "approve",
      "outputs": [],
      "stateMutability": "nonpayable",
      "type": "function"
    },
    {
      "inputs": [
        {
          "internalType": "address",
          "name": "owner",
          "type": "address"
        }
      ],
      "name": "balanceOf",
      "outputs": [
        {
          "internalType": "uint256",
          "name": "",
          "type": "uint256"
        }
      ],
      "stateMutability": "view",
      "type": "function"
    },
    {
      "inputs": [
        {
          "internalType": "uint256",
          "name": "tokenId",
          "type": "uint256"
        }
      ],
      "name": "getApproved",
      "outputs": [
        {
          "internalType": "address",
          "name": "",
          "type": "address"
        }
      ],
      "stateMutability": "view",
      "type": "function"
    },
    {
      "inputs": [
        {
          "internalType": "address",
          "name": "owner",
          "type": "address"
        },
        {
          "internalType": "address",
          "name": "operator",
          "type": "address"
        }
      ],
      "name": "isApprovedForAll",
      "outputs": [
        {
          "internalType": "bool",
          "name": "",
          "type": "bool"
        }
      ],
      "stateMutability": "view",
      "type": "function"
    },
    {
      "inputs": [],
      "name": "name",
      "outputs": [
        {
          "internalType": "string",
          "name": "",
          "type": "string"
        }
      ],
      "stateMutability": "view",
      "type": "function"
    },
    {
      "inputs": [
        {
          "internalType": "uint256",
          "name": "tokenId",
          "type": "uint256"
        }
      ],
      "name": "ownerOf",
      "outputs": [
        {
          "internalType": "address",
          "name": "",
          "type": "address"
        }
      ],
      "stateMutability": "view",
      "type": "function"
    },
    {
      "inputs": [
        {
          "internalType": "address",
          "name": "to",
          "type": "address"
        },
        {
          "internalType": "string",
          "name": "uri",
          "type": "string"
        }
      ],
      "name": "safeMint",
      "outputs": [],
      "stateMutability": "nonpayable",
      "type": "function"
    },
    {
      "inputs": [
        {
          "internalType": "address",
          "name": "from",
          "type": "address"
        },
        {
          "internalType": "address",
          "name": "to",
          "type": "address"
        },
        {
          "internalType": "uint256",
          "name": "tokenId",
          "type": "uint256"
        }
      ],
      "name": "safeTransferFrom",
      "outputs": [],
      "stateMutability": "nonpayable",
      "type": "function"
    },
    {
      "inputs": [
        {
          "internalType": "address",
          "name": "from",
          "type": "address"
        },
        {
          "internalType": "address",
          "name": "to",
          "type": "address"
        },
        {
          "internalType": "uint256",
          "name": "tokenId",
          "type": "uint256"
        },
        {
          "internalType": "bytes",
          "name": "data",
          "type": "bytes"
        }
      ],
      "name": "safeTransferFrom",
      "outputs": [],
      "stateMutability": "nonpayable",
      "type": "function"
    },
    {
      "inputs": [
        {
          "internalType": "address",
          "name": "operator",
          "type": "address"
        },
        {
          "internalType": "bool",
          "name": "approved",
          "type": "bool"
        }
      ],
      "name": "setApprovalForAll",
      "outputs": [],
      "stateMutability": "nonpayable",
      "type": "function"
    },
    {
      "inputs": [
        {
          "internalType": "bytes4",
          "name": "interfaceId",
          "type": "bytes4"
        }
      ],
      "name": "supportsInterface",
      "outputs": [
        {
          "internalType": "bool",
          "name": "",
          "type": "bool"
        }
      ],
      "stateMutability": "view",
      "type": "function"
    },
    {
      "inputs": [],
      "name": "symbol",
      "outputs": [
        {
          "internalType": "string",
          "name": "",
          "type": "string"
        }
      ],
      "stateMutability": "view",
      "type": "function"
    },
    {
      "inputs": [
        {
          "internalType": "uint256",
          "name": "tokenId",
          "type": "uint256"
        }
      ],
      "name": "tokenURI",
      "outputs": [
        {
          "internalType": "string",
          "name": "",
          "type": "string"
        }
      ],
      "stateMutability": "view",
      "type": "function"
    },
    {
      "inputs": [
        {
          "internalType": "address",
          "name": "from",
          "type": "address"
        },
        {
          "internalType": "address",
          "name": "to",
          "type": "address"
        },
        {
          "internalType": "uint256",
          "name": "tokenId",
          "type": "uint256"
        }
      ],
      "name": "transferFrom",
      "outputs": [],
      "stateMutability": "nonpayable",
      "type": "function"
    }
  ],
  "bytecode": "0x60806040523480156200001157600080fd5b50604080518082018252600c81526b2230b83824a226b4b73a32b960a11b602080830191825283518085019094526005845264111352539560da1b908401528151919291620000639160009162000082565b5080516200007990600190602084019062000082565b50505062000165565b828054620000909062000128565b90600052602060002090601f016020900481019282620000b45760008555620000ff565b82601f10620000cf57805160ff1916838001178555620000ff565b82800160010185558215620000ff579182015b82811115620000ff578251825591602001919060010190620000e2565b506200010d92915062000111565b5090565b5b808211156200010d576000815560010162000112565b600181811c908216806200013d57607f821691505b602082108114156200015f57634e487b7160e01b600052602260045260246000fd5b50919050565b61166980620001756000396000f3fe608060405234801561001057600080fd5b50600436106100ea5760003560e01c806370a082311161008c578063b88d4fde11610066578063b88d4fde146101e1578063c87b56dd146101f4578063d204c45e14610207578063e985e9c51461021a57600080fd5b806370a08231146101a557806395d89b41146101c6578063a22cb465146101ce57600080fd5b8063095ea7b3116100c8578063095ea7b31461015757806323b872dd1461016c57806342842e0e1461017f5780636352211e1461019257600080fd5b806301ffc9a7146100ef57806306fdde0314610117578063081812fc1461012c575b600080fd5b6101026100fd366004611174565b610256565b60405190151581526020015b60405180910390f35b61011f610281565b60405161010e91906111e9565b61013f61013a3660046111fc565b610313565b6040516001600160a01b03909116815260200161010e565b61016a610165366004611231565b61033a565b005b61016a61017a36600461125b565b610455565b61016a61018d36600461125b565b610486565b61013f6101a03660046111fc565b6104a1565b6101b86101b3366004611297565b610501565b60405190815260200161010e565b61011f610587565b61016a6101dc3660046112b2565b610596565b61016a6101ef36600461137a565b6105a5565b61011f6102023660046111fc565b6105dd565b61016a6102153660046113f6565b6105e8565b610102610228366004611458565b6001600160a01b03918216600090815260056020908152604080832093909416825291909152205460ff1690565b60006001600160e01b03198216632483248360e11b148061027b575061027b82610617565b92915050565b6060600080546102909061148b565b80601f01602080910402602001604051908101604052809291908181526020018280546102bc9061148b565b80156103095780601f106102de57610100808354040283529160200191610309565b820191906000526020600020905b8154815290600101906020018083116102ec57829003601f168201915b5050505050905090565b600061031e82610667565b506000908152600460205260409020546001600160a01b031690565b6000610345826104a1565b9050806001600160a01b0316836001600160a01b031614156103b85760405162461bcd60e51b815260206004820152602160248201527f4552433732313a20617070726f76616c20746f2063757272656e74206f776e656044820152603960f91b60648201526084015b60405180910390fd5b336001600160a01b03821614806103d457506103d48133610228565b6104465760405162461bcd60e51b815260206004820152603d60248201527f4552433732313a20617070726f76652063616c6c6572206973206e6f7420746f60448201527f6b656e206f776e6572206f7220617070726f76656420666f7220616c6c00000060648201526084016103af565b61045083836106c9565b505050565b61045f3382610737565b61047b5760405162461bcd60e51b81526004016103af906114c6565b6104508383836107b6565b610450838383604051806020016040528060008152506105a5565b6000818152600260205260408120546001600160a01b03168061027b5760405162461bcd60e51b8152602060048201526018602482015277115490cdcc8c4e881a5b9d985b1a59081d1bdad95b88125160421b60448201526064016103af565b60006001600160a01b03821661056b5760405162461bcd60e51b815260206004820152602960248201527f4552433732313a2061646472657373207a65726f206973206e6f7420612076616044820152683634b21037bbb732b960b91b60648201526084016103af565b506001600160a01b031660009081526003602052604090205490565b6060600180546102909061148b565b6105a133838361091a565b5050565b6105af3383610737565b6105cb5760405162461bcd60e51b81526004016103af906114c6565b6105d7848484846109e9565b50505050565b606061027b82610a1c565b60006105f360075490565b9050610603600780546001019055565b61060d8382610b25565b6104508183610b3f565b60006001600160e01b031982166380ac58cd60e01b148061064857506001600160e01b03198216635b5e139f60e01b145b8061027b57506301ffc9a760e01b6001600160e01b031983161461027b565b6000818152600260205260409020546001600160a01b03166106c65760405162461bcd60e51b8152602060048201526018602482015277115490cdcc8c4e881a5b9d985b1a59081d1bdad95b88125160421b60448201526064016103af565b50565b600081815260046020526040902080546001600160a01b0319166001600160a01b03841690811790915581906106fe826104a1565b6001600160a01b03167f8c5be1e5ebec7d5bd14f71427d1e84f3dd0314c0f7b2291e5b200ac8c7c3b92560405160405180910390a45050565b600080610743836104a1565b9050806001600160a01b0316846001600160a01b0316148061078a57506001600160a01b0380821660009081526005602090815260408083209388168352929052205460ff165b806107ae5750836001600160a01b03166107a384610313565b6001600160a01b0316145b949350505050565b826001600160a01b03166107c9826104a1565b6001600160a01b0316146107ef5760405162461bcd60e51b81526004016103af90611513565b6001600160a01b0382166108515760405162461bcd60e51b8152602060048201526024808201527f4552433732313a207472616e7366657220746f20746865207a65726f206164646044820152637265737360e01b60648201526084016103af565b826001600160a01b0316610864826104a1565b6001600160a01b03161461088a5760405162461bcd60e51b81526004016103af90611513565b600081815260046020908152604080832080546001600160a01b03199081169091556001600160a01b0387811680865260038552838620805460001901905590871680865283862080546001019055868652600290945282852080549092168417909155905184937fddf252ad1be2c89b69c2b068fc378daa952ba7f163c4a11628f55a4df523b3ef91a4505050565b816001600160a01b0316836001600160a01b0316141561097c5760405162461bcd60e51b815260206004820152601960248201527f4552433732313a20617070726f766520746f2063616c6c65720000000000000060448201526064016103af565b6001600160a01b03838116600081815260056020908152604080832094871680845294825291829020805460ff191686151590811790915591519182527f17307eab39ab6107e8899845ad3d59bd9653f200f220920489ca2b5937696c31910160405180910390a3505050565b6109f48484846107b6565b610a0084848484610c11565b6105d75760405162461bcd60e51b81526004016103af90611558565b6060610a2782610667565b60008281526006602052604081208054610a409061148b565b80601f0160208091040260200160405190810160405280929190818152602001828054610a6c9061148b565b8015610ab95780601f10610a8e57610100808354040283529160200191610ab9565b820191906000526020600020905b815481529060010190602001808311610a9c57829003601f168201915b505050505090506000610ad760408051602081019091526000815290565b9050805160001415610aea575092915050565b815115610b1c578082604051602001610b049291906115aa565b60405160208183030381529060405292505050919050565b6107ae84610d1e565b6105a1828260405180602001604052806000815250610d92565b6000828152600260205260409020546001600160a01b0316610bba5760405162461bcd60e51b815260206004820152602e60248201527f45524337323155524953746f726167653a2055524920736574206f66206e6f6e60448201526d32bc34b9ba32b73a103a37b5b2b760911b60648201526084016103af565b60008281526006602090815260409091208251610bd9928401906110c5565b506040518281527ff8e1a15aba9398e019f0b49df1a4fde98ee17ae345cb5f6b5e2c27f5033e8ce79060200160405180910390a15050565b60006001600160a01b0384163b15610d1357604051630a85bd0160e11b81526001600160a01b0385169063150b7a0290610c559033908990889088906004016115d9565b602060405180830381600087803b158015610c6f57600080fd5b505af1925050508015610c9f575060408051601f3d908101601f19168201909252610c9c91810190611616565b60015b610cf9573d808015610ccd576040519150601f19603f3d011682016040523d82523d6000602084013e610cd2565b606091505b508051610cf15760405162461bcd60e51b81526004016103af90611558565b805181602001fd5b6001600160e01b031916630a85bd0160e11b1490506107ae565b506001949350505050565b6060610d2982610667565b6000610d4060408051602081019091526000815290565b90506000815111610d605760405180602001604052806000815250610d8b565b80610d6a84610dc5565b604051602001610d7b9291906115aa565b6040516020818303038152906040525b9392505050565b610d9c8383610e62565b610da96000848484610c11565b6104505760405162461bcd60e51b81526004016103af90611558565b60606000610dd283610fed565b600101905060008167ffffffffffffffff811115610df257610df26112ee565b6040519080825280601f01601f191660200182016040528015610e1c576020820181803683370190505b5090508181016020015b600019016f181899199a1a9b1b9c1cb0b131b232b360811b600a86061a8153600a8504945084610e5557610e5a565b610e26565b509392505050565b6001600160a01b038216610eb85760405162461bcd60e51b815260206004820181905260248201527f4552433732313a206d696e7420746f20746865207a65726f206164647265737360448201526064016103af565b6000818152600260205260409020546001600160a01b031615610f1d5760405162461bcd60e51b815260206004820152601c60248201527f4552433732313a20746f6b656e20616c7265616479206d696e7465640000000060448201526064016103af565b6000818152600260205260409020546001600160a01b031615610f825760405162461bcd60e51b815260206004820152601c60248201527f4552433732313a20746f6b656e20616c7265616479206d696e7465640000000060448201526064016103af565b6001600160a01b038216600081815260036020908152604080832080546001019055848352600290915280822080546001600160a01b0319168417905551839291907fddf252ad1be2c89b69c2b068fc378daa952ba7f163c4a11628f55a4df523b3ef908290a45050565b60008072184f03e93ff9f4daa797ed6e38ed64bf6a1f0160401b831061102c5772184f03e93ff9f4daa797ed6e38ed64bf6a1f0160401b830492506040015b6d04ee2d6d415b85acef81000000008310611058576d04ee2d6d415b85acef8100000000830492506020015b662386f26fc10000831061107657662386f26fc10000830492506010015b6305f5e100831061108e576305f5e100830492506008015b61271083106110a257612710830492506004015b606483106110b4576064830492506002015b600a831061027b5760010192915050565b8280546110d19061148b565b90600052602060002090601f0160209004810192826110f35760008555611139565b82601f1061110c57805160ff1916838001178555611139565b82800160010185558215611139579182015b8281111561113957825182559160200191906001019061111e565b50611145929150611149565b5090565b5b80821115611145576000815560010161114a565b6001600160e01b0319811681146106c657600080fd5b60006020828403121561118657600080fd5b8135610d8b8161115e565b60005b838110156111ac578181015183820152602001611194565b838111156105d75750506000910152565b600081518084526111d5816020860160208601611191565b601f01601f19169290920160200192915050565b602081526000610d8b60208301846111bd565b60006020828403121561120e57600080fd5b5035919050565b80356001600160a01b038116811461122c57600080fd5b919050565b6000806040838503121561124457600080fd5b61124d83611215565b946020939093013593505050565b60008060006060848603121561127057600080fd5b61127984611215565b925061128760208501611215565b9150604084013590509250925092565b6000602082840312156112a957600080fd5b610d8b82611215565b600080604083850312156112c557600080fd5b6112ce83611215565b9150602083013580151581146112e357600080fd5b809150509250929050565b634e487b7160e01b600052604160045260246000fd5b600067ffffffffffffffff8084111561131f5761131f6112ee565b604051601f8501601f19908116603f01168101908282118183101715611347576113476112ee565b8160405280935085815286868601111561136057600080fd5b858560208301376000602087830101525050509392505050565b6000806000806080858703121561139057600080fd5b61139985611215565b93506113a760208601611215565b925060408501359150606085013567ffffffffffffffff8111156113ca57600080fd5b8501601f810187136113db57600080fd5b6113ea87823560208401611304565b91505092959194509250565b6000806040838503121561140957600080fd5b61141283611215565b9150602083013567ffffffffffffffff81111561142e57600080fd5b8301601f8101851361143f57600080fd5b61144e85823560208401611304565b9150509250929050565b6000806040838503121561146b57600080fd5b61147483611215565b915061148260208401611215565b90509250929050565b600181811c9082168061149f57607f821691505b602082108114156114c057634e487b7160e01b600052602260045260246000fd5b50919050565b6020808252602d908201527f4552433732313a2063616c6c6572206973206e6f7420746f6b656e206f776e6560408201526c1c881bdc88185c1c1c9bdd9959609a1b606082015260800190565b60208082526025908201527f4552433732313a207472616e736665722066726f6d20696e636f72726563742060408201526437bbb732b960d91b606082015260800190565b60208082526032908201527f4552433732313a207472616e7366657220746f206e6f6e20455243373231526560408201527131b2b4bb32b91034b6b83632b6b2b73a32b960711b606082015260800190565b600083516115bc818460208801611191565b8351908301906115d0818360208801611191565b01949350505050565b6001600160a01b038581168252841660208201526040810183905260806060820181905260009061160c908301846111bd565b9695505050505050565b60006020828403121561162857600080fd5b8151610d8b8161115e56fea26469706673582212206cb7f939582fe9bd5603ed5d566e3a94b107d3f4208297b50a8c2841bbe817fb64736f6c63430008090033",
  "linkReferences": {},
  "deployedLinkReferences": {}
}